:020000040800F2
:1000000000500020390C0008D50A0008DB0A00085F
:10001000E10A0008E70A0008ED0A000800000000F5
:10002000000000000000000000000000F30A0008CB
:10003000FF0A0008000000000B0B0008170B000867
:10004000810C0008810C0008810C0008810C00085C
:10005000810C0008810C0008810C0008810C00084C
:10006000810C0008810C0008810C0008810C00083C
:10007000810C0008810C0008810C0008850800082C
:10008000810C0008810C0008810C0008810C00081C
:10009000810C0008810C0008810C0008810C00080C
:1000A000810C0008810C0008810C0008810C0008FC
:1000B000810C0008810C0008810C0008810C0008EC
:1000C000810C0008810C0008810C0008810C0008DC
:1000D000810C0008810C0008810C0008810C0008CC
:1000E000810C0008810C0008810C00080000000051
:1000F0000000000000000000000000000000000000
:0C01000000000000000000005FF808F1A3
:10010C0000F1340191E838009C46A6464CF8045D99
:10011C0090E8FF0FE54600BD90EC210B704700BF47
:10012C0080EC210B704700BF90EC200B704700BF98
:10013C0080EC200B704700BFD0EC200B704700BF49
:10014C00C0EC200B704700BFF0EC0201F0EC021188
:10015C00F0EC0221F0EC0231F0EC0241F0EC025137
:10016C00F0EC0261F0EC0271F0EC0281F0EC029127
:10017C00F0EC02A1F0EC02B1F0EC02C1F0EC02D117
:10018C00F0EC02E1F0EC02F1704700BFE0EC020190
:10019C00E0EC0211E0EC0221E0EC0231E0EC024177
:1001AC00E0EC0251E0EC0261E0EC0271E0EC028167
:1001BC00E0EC0291E0EC02A1E0EC02B1E0EC02C157
:1001CC00E0EC02D1E0EC02E1E0EC02F1704700BFA0
:1001DC00B0FC0181B0FC0191B0FC01A1B0FC01B1FB
:1001EC00704700BFA0FC0181A0FC0191A0FC01A103
:1001FC00A0FC01B1704700BFEC4600B52DE90050E2
:10020C002DE9FF1F4FF000032DE90C0001A900F0B0
:10021C008FFEDDF840E012B0704700BFEC4600B531
:10022C002DE900502DE9FF1F4FF000032DE90C00C4
:10023C0001A900F0BDFEDDF840E012B0704700BF30
:10024C00EC4600B52DE900502DE9FF1F4FF00003DF
:10025C002DE90C0001A900F0CBFEDDF840E012B056
:10026C00704700BFEC4600B52DE900502DE9FF1F8B
:10027C004FF000032DE90C0001AB00F08DFEDDF812
:10028C0040E012B0704700BFEC4600B52DE90050BD
:10029C002DE9FF1F4FF000032DE90C0001AA00F01F
:1002AC00FDFEDDF840E012B0704700BF844641EA25
:1002BC00000313F0030349D1403A23D30B680360C6
:1002CC004B6843608B688360CB68C3600B690361C8
:1002DC004B6943618B698361CB69C3610B6A0362B0
:1002EC004B6A43628B6A8362CB6AC3620B6B036398
:1002FC004B6B43638B6B8363CB6BC363403040317D
:10030C00403ADBD230320BD30B6803604B6843604E
:10031C008B688360CB68C36010301031103AF3D215
:10032C000C3205D351F8043B40F8043B043AF9D2A3
:10033C00043208D0D2071CBF11F8013B00F8013B76
:10034C0001D30B8803806046704700BF082A13D383
:10035C008B07B1D010F00303AED0C3F10403D21A53
:10036C00DB071CBF11F8013B00F8013BA4D331F8AB
:10037C00023B20F8023B9FE7043AD9D3013A11F82B
:10038C00013B00F8013BF9D20B7803704B784370BA
:10039C008B788370604670470348044B834202D0CD
:1003AC00034B03B1184770470C0000200C000020D1
:1003BC00000000000548064B1B1AD90F01EBA301E6
:1003CC00491002D0034B03B1184770470C000020B2
:1003DC000C0000200000000010B5064C237843B937
:1003EC00FFF7DAFF044B13B10448AFF3008001238D
:1003FC00237010BD0C00002000000000AC1A000897
:10040C0008B5054B1BB105490548AFF30080BDE8A5
:10041C000840FFF7CFBF00BF000000001000002015
:10042C00AC1A000880B485B000AFF8603B1D83E8BF
:10043C000600094B9B68084A23F4E0639360064B63
:10044C009A68FB791B02044913438B6000BF143775
:10045C00BD4680BC704700BF0010024080B485B020
:10046C0000AFF8603B1D83E8060000BF1437BD46A3
:10047C0080BC704780B485B000AFF8603B1D83E84A
:10048C000600094B5B68084A23F0F0035360064BE7
:10049C005A68BB791B01044913434B6000BF1437E6
:1004AC00BD4680BC704700BF0010024080B586B0CE
:1004BC0000AFF860384680E80E00464B1B68454A92
:1004CC0043F001031360434907F11000FF2302229C
:1004DC0000F034F90346002B14BF01230023DBB2D8
:1004EC00002B07D0F86800F079F807F114031846D0
:1004FC0000F072F9FB79002B19D0364B1A68FB7A95
:10050C009B04344913430B60324B1A68FB791B0470
:10051C00304913430B6000BF2E4B1B6803F40033B0
:10052C00002B0CBF01230023DBB2002BF4D17B7A10
:10053C00002B4AD0274B5B68264A23F47013536078
:10054C00244B5A683B799B04224913434B60214B43
:10055C005B68204A23F4803353601E4B5A687B79C6
:10056C001B041C4913434B601A4B1B68194A43F07C
:10057C0080731360184B1B68174A43F00203136017
:10058C0000BF144B1B6803F00073002B0CBF01233E
:10059C000023DBB2002BF4D10E4B5B680D4A23F029
:1005AC00030353600B4B5B68BA791146094A0B4342
:1005BC00536000BF074B5B6803F00803002B0CBFB4
:1005CC0001230023DBB2002BF4D100BF1837BD464A
:1005DC0080BD00BF001002400020024080B584B0F6
:1005EC0000AF7860194B1B68184A43F00103136085
:1005FC00164907F10800FF23022200F09FF803467A
:10060C00002B14BF01230023DBB2002B04D007F115
:10061C000C03184600F0E0F80C4B1B680B4A23F057
:10062C0080731360094B1B68084A23F001031360A5
:10063C00064B5B68054A23F003035360034B034AE4
:10064C005B68536000BF1037BD4680BD0010024090
:10065C0080B584B000AFF860384680E80E003B46A9
:10066C0093E80600F868FFF705FF3B4693E80600A1
:10067C00F868FFF7D7FE3B4693E80600F868FFF7EB
:10068C00EDFE3B460ECBF868FFF710FF00BF1037AE
:10069C00BD4680BD80B483B000AF78600B46FB7064
:1006AC000F4B1B680E4A23F0010313600D4BDB69E3
:1006BC000C4A43F00403D361FB785A1E084B9A6230
:1006CC00074B40F2E732DA62054B1B68044A43F0F1
:1006DC000103136000BF0C37BD4680BC704700BFE0
:1006EC00000800400010024080B485B000AF786074
:1006FC0039600023FB8114E00F4B1B690E4A23F079
:10070C000103136100BF0C4B1B6903F00103002BA9
:10071C000CBF01230023DBB2002BF4D1FB89013386
:10072C00FB81FB893A689A42E6D800BF00BF1437B8
:10073C00BD4680BC704700BF0008004080B487B045
:10074C0000AFF860B9607A603B6000237B610FE01A
:10075C00BB681A687B681340002B14BF012300236D
:10076C00DBB2002B01D000230CE07B6901337B61F1
:10077C003B687A699A4234BF01230023DBB2002B19
:10078C00E6D1012318461C37BD4680BC70470000DB
:10079C0080B483B000AF7860054BDB68044A23F467
:1007AC000053D36000BF0C37BD4680BC704700BF00
:1007BC000010014080B483B000AF7860054BDB685B
:1007CC00044A43F40053D36000BF0C37BD4680BCD1
:1007DC00704700BF0010014080B586B000AF786054
:1007EC007868FFF7D5FF07F108034FF496711846A8
:1007FC00FFF77AFF7868FFF7DDFF07F10C034FF482
:10080C0096711846FFF770FF7868FFF7C1FF07F184
:10081C0010034FF496711846FFF766FF7868FFF7E0
:10082C00C9FF07F114034FF47A711846FFF75CFF08
:10083C007868FFF7D1FF00BF1837BD4680BD0000B8
:10084C0080B483B000AF0346FB7197F90730002BDF
:10085C000BDBFB7903F01F02064997F907305B09A4
:10086C00012000FA02F241F8232000BF0C37BD46EC
:10087C0080BC704700E100E080B483B000AF134B44
:10088C001B6803F40033002B14BF01230023DBB2DD
:10089C00002B15D000237B600BE00D4A7B681344C2
:1008AC0019780C4A7B6813440A461A707B6801332A
:1008BC007B607B68092BF0DD044B4FF400325A60EF
:1008CC0000BF0C37BD4680BC704700BF0000024023
:1008DC00280000203400002080B485B000AF786080
:1008EC000B467B800023FB8120E000BF144B1B6870
:1008FC0003F08003002B0CBF01230023DBB2002B81
:10090C00F4D1FB897A6813441A780D4B5A6000BFF6
:10091C000B4B1B6803F04003002B0CBF012300237F
:10092C00DBB2002BF4D1FB890133FB81FA897B8884
:10093C009A42DAD300BF00BF1437BD4680BC704763
:10094C000038014080B586B000AF564B9B69554AC4
:10095C0043F480439361534B5B69524A43F0010368
:10096C005361504B9B694F4A43F0040393614E4BC8
:10097C000122DA714C4B01221A724B4B01225A7232
:10098C00494B00229A72484B0022DA72464B0222E3
:10099C009A71454B07221A71434B01225A71424BF3
:1009AC000222DA70404B00221A703F4B00225A7020
:1009BC003D4B08229A703C4B07F10C000ECBFFF715
:1009CC0047FE3A4B5B68394A23F030035360374B90
:1009DC005B68364A43F030035360344B5B68334AF0
:1009EC0023F0C0035360314B5B68304A43F0800303
:1009FC0053602E4B5B682D4A23F4806353602B4B62
:100A0C005B682A4A43F400635360284B5B68274AAF
:100A1C0023F440735360254BDB68244A43F4806312
:100A2C00D360234B40F6A6629A60214B42F20C0233
:100A3C00DA601F4B5B691E4A43F0400353611D4B48
:100A4C001D4A9A601B4B1D4ADA601A4B0A225A60E7
:100A5C00184B83221A60174B1B68164A43F020036D
:100A6C0013600F20FFF7ECFE00F05CF8144B1B68D2
:100A7C00BB6007F1100308211846FFF70BFE114A63
:100A8C003B4692E803001860043319700A210B48A6
:100A9C00FFF722FF07F1140341F270711846FFF7BC
:100AAC0023FEF3E700100240400000200008014044
:100ABC000038014058000240043801402800002052
:100ACC0000000020C41A000880B400AFFEE780B418
:100ADC0000AFFEE780B400AFFEE780B400AFFEE7E6
:100AEC0080B400AFFEE780B400AF00BFBD4680BC51
:100AFC00704780B400AF00BFBD4680BC704780B467
:100B0C0000AF00BFBD4680BC704780B500AF00F0A1
:100B1C007BF800BF80BD80B400AF00BFBD4680BC79
:100B2C007047000080B485B000AF0023FB60002349
:100B3C00BB6000237B602F4B5B6803F00C03FB60F6
:100B4C00FB68082B11D0FB68082B3AD8FB68002BEC
:100B5C0003D0FB68042B04D033E0274B274A1A60E0
:100B6C0033E0254B254A1A602FE0224B5B6803F4D7
:100B7C007013BB601F4B5B6803F480337B60BB68F6
:100B8C009B0C0233BB607B68002B06D1BB681C4AF4
:100B9C0002FB03F3184A136017E0164B5B6803F46F
:100BAC000033002B06D0BB68154A02FB03F3124A34
:100BBC0013600AE0BB68114A02FB03F30E4A136090
:100BCC0003E00D4B0D4A1A6000BF0A4B5B681B0912
:100BDC0003F00F030B4AD35CFB60074B1A68FB68EE
:100BEC0022FA03F3044A136000BF1437BD4680BCDD
:100BFC00704700BF001002400000002000127A0075
:100C0C0000093D00CC1A000880B400AF054B1B78DE
:100C1C001A46054B1B681344034A136000BFBD46BC
:100C2C0080BC7047040000204C000020FFF773FFCD
:100C3C000B480C490C4A002302E0D458C45004332E
:100C4C00C4188C42F9D3094A094C002301E0136003
:100C5C000432A242FBD300F099FEFFF773FE7047FB
:100C6C00000000200C000020EC1B00080C000020F1
:100C7C00E8010020FEE7000003685A004CBF43F077
:100C8C00004323F000431844704700BF2DE9F8439C
:100C9C0041B301F1FF380546164647460024E119D9
:100CAC0001EBD171491005EBC1094846FFF7E4FF90
:100CBC00884503464FEAC1020ED002F10800B34248
:100CCC0028440BD8FFF7D8FF0138B04201F10104DA
:100CDC00E5D34846BDE8F883B042FAD98C4201D03E
:100CEC004F1EDCE74FF000094846BDE8F88300BF13
:100CFC00012807D0022807D0044B00280CBF184647
:100D0C00002070470248704702487047C113000822
:100D1C00C9130008D113000830B5214B044683B029
:100D2C008D1E13B3284601A9AFF3008088B3019937
:100D3C002A46FFF7ABFF014658B3FFF79DFF4B6800
:100D4C00A064012B28D0002B20DB081DFFF794FF9B
:100D5C00002323650368E064002B0DDBFFF78CFF99
:100D6C0003460020236103B030BD0E4B0E491846DC
:100D7C00C91AC9100191DBE7C3F30360FFF7B8FF91
:100D8C00034630B10020236103B030BD0123081DA0
:100D9C00DFE700230920E5E700230520E2E700BF99
:100DAC0000000000181B0008E01B0008036810B5C9
:100DBC00DA07044606D49B0700F1480009D5FFF773
:100DCC00B3F92368590709D51A070ED5DB0613D5D5
:100DDC0010BDFFF7A1F923685907F5D404F1D00031
:100DEC00FFF7AAF923681A07F0D404F5A870FFF7E7
:100DFC00ABF92368DB06EBD404F5E870BDE81040D2
:100E0C00FFF7E6B90346006800B11844704700BF0D
:100E1C00704700BF70B504460E462046316CFFF794
:100E2C007BFF054698B9D6F840C0324621460120D2
:100E3C002369C4F814C098470828EED0072806D1B7
:100E4C002846316CFFF7E4FF301DFFF759F9FFDE40
:100E5C002DE9F0474FF0000AADF5727D0DF10C0E47
:100E6C0001F1040CC768D0F8188006461446BCE89B
:100E7C000F00AEE80F00BCE80F00AEE80F00BCE8B6
:100E8C000F00AEE80F009CE80F0002AD8EE80F00DB
:100E9C00C5F800A021E02B6C4FF4F0722946736169
:100EAC007AA8FFF703FA3146504633697AAA984775
:100EBC00889C82466C643346324649460120CDE913
:100ECC000058B847044630BB4FF4F07228467AA954
:100EDC00FFF7ECF9BAF1080F1AD13046296CFFF77D
:100EEC001BFF04F109095FFA89FA04460028D2D0E5
:100EFC00A96B3346696432460120CDE900584AF0AB
:100F0C001001B84738B920460DF5727DBDE8F08761
:100F1C00BAF1070F05D0092420460DF5727DBDE806
:100F2C00F0872046296CFFF773FF03A8FFF7E8F85A
:100F3C00F0B54FF0FF37CB6BF9B00B6401AC01F19E
:100F4C00040C0E460546BCE80F000FC4BCE80F00AD
:100F5C000FC4BCE80F000FC49CE80F0084E80F001E
:100F6C00009706E06A4629462B69984708280446EC
:100F7C0008D128461099FFF7CFFE0028F2D009209F
:100F8C0079B0F0BD6846FFF711FF062CF7D131465A
:100F9C002846FFF73FFF00BF10B414468461DC6B9A
:100FAC00C16000221C64194610BCFFF751BF00BF82
:100FBC0070B54369C6680B64AEB90A46036904464A
:100FCC000D46014602209847072805D008280ED167
:100FDC0029462046FFF71EFF3046296CFFF718FF05
:100FEC00281DFFF78DF80122FFF732FFFFDEFFDE31
:100FFC00C26832B1D1F83CC00022C1F840C0FFF742
:10100C0027BFFFF795BF00BF012910D009D883B9BE
:10101C000F2A0ED800EB820252681846009B1A6009
:10102C007047033901298CBF022001207047084604
:10103C0070470220704700BF002300B585B00A46F8
:10104C0003A900911946FFF7DFFF039805B05DF87F
:10105C0004FB00BF012910D009D883B90F2A0ED880
:10106C00009900EB820209681846516070470339F9
:10107C0001298CBF022001207047084670470220CE
:10108C00704700BF002310B584B003AC03920094EA
:10109C000A461946FFF7DEFF04B010BD70B54FF0DD
:1010AC00FF36D36BADF50E7D13640DF15C0E02F1C2
:1010BC00040C05460C46BCE80F00AEE80F00BCE87B
:1010CC000F00AEE80F00BCE80F00AEE80F009CE884
:1010DC000F008EE80F00169612E00C2116A86A4637
:1010EC00FFF7D0FF214616A8A84778B96946082013
:1010FC00049B16AA98470528064608D0092805D04F
:10110C0068462699FFF708FE0028E6D0092616A89F
:10111C00FFF74CFE30460DF50E7D70BD2DE9F04FFE
:10112C009346CA6C0D4652F8041B89B000F0030CB0
:10113C000692002B79D002240E0C8DF81D60090448
:10114C00F6B2059102EB86022F6DBCF1020F08BFBF
:10115C00AA6B17F001078DF81C400CD0584605A956
:10116C0000F0A0FA18B9082009B0BDE8F08F0920EA
:10117C0009B0BDE8F08F1668002EEFD0B14664467A
:10118C009A4600F0080101910297BAF1020F48D07B
:10119C00B2F80090568802F10408AB6C26F00102FC
:1011AC000F215846D718FFF747FF874237D829F049
:1011BC0001023A44824294BF00220122760006F0DA
:1011CC00020309F0010943EA0903012B47D0022B62
:1011DC0031D0002BCBD114B1002A40F0CA8008F1D9
:1011EC000402D2F80090B9F1000FCED1584605A9EF
:1011FC00029F00F057FA0028B9D1002FB3D00F216D
:10120C005846FFF719FF0E2102465846FFF73AFFE2
:10121C000F215846664AFFF735FF0720A8E7002242
:10122C00CCE7566802F10808B7E7090203240591D8
:10123C008DF81D3088E7D8F8006026F00043002CAC
:10124C0044D122B1019A002A5AD0002B58D0002E3A
:10125C0001DA08F10408013308EB8302C1E7ECB9A9
:10126C00CAB1D8F80430D8F80020991C4FEAD272D1
:10127C003FF47DAF05F158010133049100F08C80EF
:10128C0008F10400FFF7BEFD04AB01462846AFF39E
:10129C000080002857D108F10802A2E70D2158461A
:1012AC00FFF7CAFE2B6A8342F5D1AB6A9845F2D19F
:1012BC004046FFF7E1FC0F2102465846FFF7E2FEDD
:1012CC002A4600215846FFF7DDFEA6E70D215846B9
:1012DC000393FFF7B1FE2A6A039B8242B7D1AA6A35
:1012EC009045B4D100270422C5E90B724244AB628D
:1012FC006A63D8F80020BA4256DB01220292AAE7B0
:10130C00039400261C4608F1040905F158070DE06A
:10131C0048460497FFF776FD0022014604AB2846A9
:10132C00013609F10409AFF30080E8B9A642EFD108
:10133C000D215846FFF780FE0346049A0620C5E9A6
:10134C0009282B6214E704460D215846FFF774FE5A
:10135C00022CDDF81090286224D12B4643F82C9FE8
:10136C000620C5E9093803E72346D8F80060039C3A
:10137C006DE74046FFF780FC08F104020446AA63BF
:10138C002846AFF3008000283FF4F1AE22460F212F
:10139C005846FFF777FE40E7894658460D21FFF780
:1013AC004BFE28624B46DBE7581C08EB800080E7BD
:1013BC00000000000023FFF7B1BE00BF0123FFF7C0
:1013CC00ADBE00BF0223FFF7A9BE00BF2DE9F0435D
:1013DC00064615461C46C3B0042900F2CD80DFE852
:1013EC0001F0AC51CB2A0300002C40F0C580102A30
:1013FC0000F2C2800368DC0600F1E38020AF3846BF
:10140C00FEF7F0FE012438460023B16B04FA03F218
:10141C002A4203F1010305D00A4652F804CB1146C7
:10142C00C0F800C0042B00F10400EFD13846B163C2
:10143C00FEF7CEFE95E0032C40F09E8094B204EBB8
:10144C001243102B4FEA124500F2968003681F07D7
:10145C0000F1BF8020AF3846FEF798FEB26B07EB69
:10146C00C50154B10B4601EBC401D01AE4001D5860
:10147C0043F8045B8B42FAD122443846B263FEF740
:10148C0063FE6EE0012C4FEA124895B26DD0052C2C
:10149C0072D108EB0509B9F1200F6DD8B8F10F0F17
:1014AC006ED8B9F1100F036800F29B80D90708D5EC
:1014BC00304623F0010343F0020340F8483BFEF7AB
:1014CC0037FE20AF3846FEF733FEB36B002D00F02D
:1014DC00B5806D006A1E002507EBC8010132043986
:1014EC0003EB820253F8040B934241F8040FF9D139
:1014FC00002D00F09D804146102938BF10216F4609
:10150C006B001039013B07EBC1010133043902EBCD
:10151C00830352F8040B9A4241F8040FF9D1012CC1
:10152C0000F08480B8F10F0FB26302D820A8FEF748
:10153C00FBFD3846FEF700FE13E0ECB92346012410
:10154C00816B371D90B204FA03F202421CBF51F8B2
:10155C00042B47F823200133102BF4D1A80400D41A
:10156C00B163002043B0BDE8F08308EB0503102BFA
:10157C0002D8B8F1100F14D1022043B0BDE8F083AB
:10158C00002DEED003685A075CD46F463846FEF740
:10159C00D7FDB26B6B00A8F11001013B07EBC10149
:1015AC00B3E70368DA0759D420AF3846FEF7B8FD25
:1015BC00B36B002D8DD104333846B363FEF7ACFD0D
:1015CC00CFE723F01003036000F5E870FEF70AFE86
:1015DC0014E723F00803036000F5A870FEF7D6FDAE
:1015EC0038E7D90708D523F0010343F0020340F88C
:1015FC00483BFEF79DFD3368580706D5304623F06F
:10160C00040340F8D03BFEF79BFD20AF3846FEF7B5
:10161C008FFD6846FEF794FDC8F110025200B36BC3
:10162C00A9F11005013A07EBC80157E720AFC2E753
:10163C00012CC0D0B8F10F0FB36392D83846FEF727
:10164C0073FD8EE76F4623F0040340F8D03BFEF7A2
:10165C0077FD3846FEF774FDB26B9BE7304623F0FE
:10166C00030340F8483BFEF75BFD9DE7027A034617
:10167C007AB9427AA2B14FF0030C4168013A427236
:10168C0008680A1D5A60020283F808C0000E1A602E
:10169C0070470068013A1A7202021A60000E704715
:1016AC00B02070472DE9F0434FF0000806460D4678
:1016BC0085B02846FFF7DAFFB028044600F0DC803E
:1016CC00070647D500F0F003802B5FD0B02B74D009
:1016DC001BD8902B00F09C80A02B12D1C3434FF44D
:1016EC007F6203F007031A41010702F47F6201D500
:1016FC0042F48042002330461946FFF767FE00286B
:10170C00D7D0092005B0BDE8F083C02B6ED1C62818
:10171C0000F09480C72800F0B48000F0F803C02BD0
:10172C0000F0C980C82800F0D480C928E9D1284627
:10173C00FFF79CFF0523044601213046220304F0E9
:10174C000F0402F470220C442243FFF73FFE0028E2
:10175C00AFD0D6E78300DBB21F1D00230DF10C09BF
:10176C0019460D223046CDF80090FFF74DFC039B37
:10177C0060064CBFDF1BFF1800230D2230461946B4
:10178C00CDF800900397FFF765FC92E72846FFF72A
:10179C006DFF24022043B0F5004FB2D000230401AA
:1017AC0019463046A2B2FFF711FE0028A9D114F455
:1017BC00004F18BF4FF001087BE7B12852D0B22878
:1017CC0000F0AC80B3286ED000F0FC03B42B98D0A2
:1017DC00012300F007021A443046194642F4002255
:1017EC00FFF7F4FD00283FF464AF8AE700F0F8033C
:1017FC00D02B86D100F0070201320523012130469F
:10180C0042F40022FFF7E2FD00283FF452AF78E7E4
:10181C0000F00D030D2B3FF474AF002303AF1946FA
:10182C0000F00F0200973046FFF7EEFB00230D226D
:10183C00304619460097FFF70DFC3AE72846FFF7AC
:10184C0015FF04460323220304F00F0402F4702254
:10185C000134304619462243FFF7B8FD00283FF407
:10186C0028AF4EE72846FFF701FF431EDBB20E2BD5
:10187C0002467FF63FAF44E7B8F1000F3ED00020A0
:10188C0040E72846FFF7F2FE431EDBB20E2B024662
:10189C003FF637AF002304213046FFF797FD0028B1
:1018AC003FF407AF2DE72846FFF7E0FE012304467F
:1018BC001946304642E7032300F00F02013230464E
:1018CC00194642F42022FFF781FD00283FF4F1AEC7
:1018DC0017E72846FFF7CAFE0246012102F0F00482
:1018EC0002F00F0210340A440523304642EA043257
:1018FC00FFF76CFD00283FF4DCAE02E703AC434677
:10190C0041460E2230460094FFF77EFB43460F22E1
:10191C00414630460094FFF79DFBB0E700230DF1E4
:10192C000C090D2219463046CDF80090FFF76CFBE0
:10193C002846FFF79BFE02064FF00207039C0BD5CF
:10194C0000F07F00B840044428460394FFF78EFE55
:10195C00030607F10707F3D4002300FA07F204F596
:10196C0001742244039230460D221946CDF80090A2
:10197C00FFF770FB9DE600BF024B13B1024800F06D
:10198C0045B8704700000000E919000870B50F4B0E
:10199C000F4DAB42A3EB050607D00024B61055F84B
:1019AC00043B01349847A642F9D800F079F8094D68
:1019BC00094B5E1BAB424FEAA60606D0002455F835
:1019CC00043B01349847A642F9D870BDE01B0008CF
:1019DC00E01B0008E01B0008E81B000838B5074DA9
:1019EC00074C2C1BA41005D0013C55F8043D98471E
:1019FC00002CF9D1BDE8384000F058B8EC1B0008B9
:101A0C00E81B0008704700BF704700BF0023014669
:101A1C001A46184600F000B82DE9F047DFF874A01C
:101A2C000646DAF8000098460F469146FFF7EAFFA3
:101A3C00194B1C6824B365681F2D24DC5EB96B1C24
:101A4C000235DAF80000636044F82570FFF7DCFF1C
:101A5C000020BDE8F087012304EB8501C1F88890D4
:101A6C00D4F88821AB401A43022EC4F88821C1F85F
:101A7C000881E4D1D4F88C211A43C4F88C21DEE718
:101A8C00064C1C60D7E7DAF80000FFF7BDFF4FF0FB
:101A9C00FF30DEE708000020500000205800002036
:101AAC00F8B500BFF8BC08BC9E467047F8B500BF3F
:081ABC00F8BC08BC9E4670470F
:101AC4006675636B00000000000000000000000069
:081AD4000102030406070809E2
:101ADC0005970181B0B008840000000003970181D4
:101AEC00B0B008840000000003970181B0B00884F6
:101AFC000000000005970181B0B0088400000000D0
:0C1B0C0005970181B0B0088400000000C3
:101B180018E9FF7F0100000098E9FF7FB8FFFF7F09
:101B2800C0EAFF7FBCFFFF7F2CEBFF7FC0FFFF7F7A
:101B380068EBFF7F01000000A4ECFF7FBCFFFF7F84
:101B480004EDFF7F0100000000EEFF7FB8FFFF7F7C
:101B58007CEFFF7F01000000C4F1FF7FB0A9028085
:101B680050F2FF7FB0B0A880A0F2FF7F0100000014
:101B7800A8F2FF7FB0B0AA80DCF2FF7FAE71B2801E
:101B8800B4F3FF7FAB3F388014F4FF7F01000000FF
:101B980024F4FF7FB0B0AA805CF4FF7F010000004E
:101BA80000F5FF7FAA0DB28078F5FF7FB0AF0880FF
:101BB80008F8FF7F0100000018F8FF7FAD3F0280A2
:101BC800B0FAFF7F01000000E0FAFF7FB0AD0480AB
:081BD800ACFDFF7F01000000DD
:081BE000851900080D0400083E
:041BE800E503000809
:0C1BEC000024F400010000005400002060
:0400000508000C39AA
:00000001FF
